:101013004D554C54494C4556454C00534543555248
:101023004954592053595354454D005072657373B5
:10103300202A0050415353574F52440057524F4EAA
:101043004700414343455353204445494E45442EAD
:101053002E2E004F54502073656E64696E67202EE8
:101063002E2E210041542B434D47463D310D0A009E
:1010730041542B434D47533D222B393138393037B7
:10108300313530353736220D0A00456E74657220CE
:10109300746865204F54502E2E2E004F5450204D0F
:1010A3004154434845442E2E2E00444F4F52204F67
:1010B30050454E494E4700444F4F52204F50454EE6
:1010C300454400444F4F5220434C4F53494E470031
:1010D30041465445522000205345434F4E4453004C
:1010E300444F4F5220434C4F53454400494E5641C1
:1010F3004C4944204F54502021212E2E00414C4571
:101103005254202121210A20534F4D454F4E452053
:1011130054525920544F204F50454E205448452097
:10112300444F4F5200506F6C6963652069732063AD
:101133006F6D6D696E672E2E2E005448414E4B2005
:10114300594F55000031003200330034003500366A
:1011530000370038003900300023002B002F002A0D
:08116300002D00250102030428
:04158300022903E84E
:041484007FE87E037C
:10148800D3EF9400EE64809480400F7DFADDFE7DFA
:0A149800F7DDFEEF1F70E91E80E68D
:0114A2002227
:0714F8007E001214887F0141
:1014FF008FA0C290C291D2927F027E00121488C236
:02150F00922226
:101511007F011214FF7F021214FF7F0C1214FF7F50
:09152100381214FF7F800214FF50
:101543008FA0D290C291D2927F027E00121488C2E1
:021553009222E2
:0B13FE007F011214FF7BFF7A1079C6FC
:101409008B1A8A1B891CAB1AAA1BA91C120C3D60DA
:1014190013051CE51C7002051B14F9120C3DFF1283
:05142900154380E222E2
:041370008E1A8F1B27
:10137400E4FBE51B451A6023AE1AAF1B7C007D0A13
:10138400120C68741C2BF8A6050BAE1AAF1B7C005C
:101394007D0A120C688E1A8F1B80D71BC3EB6480E6
:1013A4009480400E741C2BF8E62430FF1215431B66
:0213B40080EACD
:0113B6002214
:0812F3008F288E278D268C2523
:1012FB00E4FFFEFDFCAB28AA27A926A8251209FEB0
:10130B005018AF28AE27AD26AC25120A778F288E42
:10131B00278D268C257F2D121543AF28AE27AD26A2
:10132B00AC25120AC68F828E831213707F2E121574
:10133B0043AE83AF82AD07AC06EC120A8DA804A9AD
:10134B0005AA06AB07AF28AE27AD26AC25120803BE
:10135B00E4FBFA79C878421208F8120AC612137025
:05136B007F2002154384
:0F155500759850758920758BFD758DFDD28E228E
:08156D008F993099FDC299220B
:06142E007BFF7A107973C8
:101434008B1A8A1B891CAB1AAA1BA91C120C3D60AF
:1014440013051CE51C7002051B14F9120C3DFF1258
:05145400156D80E2228D
:0413B7008E1A8F1BE0
:1013BB00E4FBE51B451A6023AE1AAF1B7C007D0ACC
:1013CB00120C68741C2BF8A6050BAE1AAF1B7C0015
:1013DB007D0A120C688E1A8F1B80D71BC3EB64809F
:1013EB009480400E741C2BF8E62430FF12156D1BF5
:0213FB0080EA86
:0113FD0022CD
:10116B00C287C286C285C284D283D282D281D28008
:10117B00E52AB40F0BE529B42706752903752AE870
:10118B00052AE52A70020529A28182808282828348
:10119B0040DEC284D287D286D285A28182808282AF
:1011AB0082834007E4F51AF51B804CC285D287D2A7
:1011BB0086D284A2818280828282834008751A0043
:1011CB00751B018032C286D287D285D284A28182DE
:1011DB0080828282834008751A00751B028018C2B8
:1011EB0087D286D285D284A28182808282828340FA
:1011FB0006751A00751B03208005E4FAFB80192085
:10120B0081067A007B0180102082067A007B0280A7
:10121B00072083047A007B037F2C7E01121488A2A3
:10122B008182808282828350F67F2C7E0112148809
:10123B00EB25E0FDEA33FCE51BAE1A7803C333CE96
:10124B0033CED8F92447F58274113EF583E5822D10
:0B125B00F582E5833CF583740193FFEE
:011266002265
:07157500D2B6D2B7C2B722C3
:07157C00C2B7D2B6D2B722BC
:02145900AD07DD
:10145B00E4FCC2B674807E00A804088006CEA2E726
:10146B0013CE13D8F8FFEDFBEF5B6003D38001C302
:08147B0092B7D2B60CBC08DAEE
:011483002246
:1014A300E4FFFEC2B600D2B630B70D7480A80608BA
:0C14B3008002C313D8FC42070EBE08E7FD
:0114BF00220A
:1014C000A9051215751214591214D0AF011214592E
:0C14D000C2B6D2B7D2B620B7FDC2B62219
:09156400C2B6D2B7D2B6C2B6225B
:10152A00AE07AA031214C0AF021214591214D01231
:09153A00157C7F0A7E0002148872
:0214DC00AA075D
:1014DE001214C0121575EA4401FF1214591214D0D9
:0914EE001214A312156412157CFE
:0114F70022D2
:100D0100E4F50AF50BF50CF50DF50EF50FF510F5FB
:100D110011F512F51378157C00FD7BFF7A117967C7
:100D2100FE7F04120C17121511121555E4F50CF57E
:100D31000DAD0D74152DF8E6FB7FA012152A050DDA
:100D4100E50D7002050CC39404E50C940040E27FAC
:100D5100841214FF7F011214FF7BFF7A10791312A2
:100D610014097FC01214FF7BFF7A10791E12140937
:100D71007FA07E0F1214FA7BFF7A10792E121409CC
:100D810012116BBF2AFAE4F50CF50DAD0D7FA0121F
:100D910014DC8F14AE10AF117C007D0A120C56AD1D
:100DA10014ED3395E0FCEF2DF511EE3CF510050D3A
:100DB100E50D7002050CC39404E50C940040CCAF22
:100DC10011AE10121370E4F5197F011214FF7BFFAD
:100DD1007A1079361214097FC01214FFE4F50CF56C
:100DE1000D12116B8F147F2A121543AE12AF137CB3
:100DF100007D0A120C56AD14ED3395E0FCED24D0C4
:100E0100FDEC34FFCD2FF513ED3EF512050DE50D8B
:100E11007002050CC39404E50C940040C4E511B5BF
:100E21001307E510B5120280207F011214FF7BFF2A
:100E31007A10793F1214097FD07E071214880519A0
:100E4100C3E519648094834080E519B403107F01E0
:100E51001214FF7BFF7A10794512140980FE7F017D
:100E61001214FF7BFF7A107956121409121484852B
:100E71002908852A097BFF7A1079671214347F6467
:100E81007E0012148812142E7F647E00121488AF23
:100E910009AE081213B77F1A12156D7F011214FFE4
:100EA1007BFF7A10798D1214097FC01214FFE4F5CB
:100EB1000CF50D12116B8F147F2A121543AE0AAF78
:100EC1000B7C007D0A120C56AD14ED3395E0FCED60
:100ED10024D0FDEC34FFCD2FF50BED3EF50A050DC9
:100EE100E50D7002050CC39404E50C940040C47F29
:100EF100321214F8E509650B7004E508650A600310
:100F0100020FA67BFF7A10799E1214097FE87E03F7
:100F11001214FA7BFF7A1079AD121409121484C2EB
:100F210093D2947F887E13121488D293D2947BFF3C
:100F31007A1079BA1214097F647E00121488750C34
:100F410000750D051213FE7FC01214FF7BFF7A108E
:100F510079D3121409E50D2430FF1215437BFF7A72
:100F61001079DA1214097FEE7E02121488E50D154C
:100F71000D7002150CD3E50D9400E50C940050C4DE
:100F8100D293C2941213FE7FA07E0F121488D293C3
:100F9100D2947F011214FF7BFF7A1079E3121409B6
:100FA100121484805D7F011214FF7BFF7A1079EFA8
:100FB100121409121484050FE50F7002050E640363
:100FC100450E703612142E7F647E001214887BFF4A
:100FD1007A1179001214347F1A12156D7F6412147C
:100FE100F87BFF7A1079451214097FC01214FF7B38
:100FF100FF7A11792812140980FEE4F50AF50B0233
:101001000E9C7F011214FF7BFF7A11793D121409A6
:0210110080FE5F
:10080000020B32E86480F8E933E83360110460F0E9
:10081000ED33EC337009E8FCE9FDEAFEEBFF22045E
:1008200060DED3EB9FEA9EE99DE8C2E78CF0C2F759
:1008300095F0400CE8CCF8E9CDF9EACEFAEBCFFB25
:10084000120AFD85D0F05804700320D5B3E8047077
:10085000075002B2D5020B3C92D5EC0460F7E4CC11
:10086000C0E0C398F8603B94186008400DD0E0FBEE
:10087000020B14E4FBFAC9FC8028E830E406E4C962
:10088000FBE4CAFCE830E305E4C9CACBFCE8540742
:100890006010F8C3E913F9EA13FAEB13FBEC13FC4D
:1008A000D8F130F52FC3E49CFCEF9BFFEE9AFEEDF0
:1008B00099FDD0E0FBEF4E4D4C701222DB03020B92
:1008C00039EC2CFCEF33FFEE33FEED33FDED30E77A
:1008D000EB020B14EF2BFFEE3AFEED39FDD0E0FBFF
:1008E00050130BBB0003020B3CED13FDEE13FEEFA8
:0808F00013FFEC13FC020B14D2
:1008F800EC4D6011E8497017ED33EC3304600DE4FA
:10090800FCFFFEFD22E933E8330470F8020B3212D3
:100918000AFD58046009E4CC2481500628500902D5
:100928000B3C284003020B39C0E0EB4A7044B98005
:1009380006D0E0FB020B28EF4E701CBD8008EBFFD1
:10094800EAFEE9FD80EBE98DF0A4FEE5F00209E19D
:10095800E9CDF9EAFEEBFFEF89F0A4FCE5F0CE89DA
:10096800F0A42EFFE435F0CD89F0A42DFEE435F097
:100978008067EF4E7005BD80D780C3EF8BF0A4ACC5
:10098800F0EE8BF0A42CFCE435F0F8EF8AF0A42C00
:10099800E5F038FCE433CB8DF0A42CFCE5F03BF813
:1009A800EE8AF0A42CFCE5F038F8E433CF89F0A403
:1009B8002CFCE5F038CF3400CE89F0A42FFFE5F009
:1009C8003EFEE433C98DF0A42EFEE5F039CD8AF061
:1009D800A42FFFE5F03EFEE43DFD33D0E0FB5007D9
:1009E8000BBB000F020B3CEC2CFCEF33FFEE33FE8D
:0609F800ED33FD020B14BB
:1009FE0074F8CC6480CCC86480C8F58204604FC3A0
:100A0E00EB9FF5F0EA9E42F0E99D42F0E89C45F03E
:100A1E00603C501DE5825FFFE582D313CB5BCBF4C8
:100A2E002B5582FB50280ABA002409B900200880F1
:100A3E001DE5825BFBE582D313CF5FCFF4C3132F8B
:100A4E005582FF50090EBE00050DBD00010CC3EB13
:100A5E009FF5F0EA9E42F0E99D42F0E89C45F06079
:090A6E0007CC4820E701B3EC229B
:100A7700ED33EC33600A047003BD8004ECB2E7FC8D
:010A8700224C
:100A880075F020800E75F010800575F0087D007EE9
:100A9800007F003392D530D503120C9EEC33401002
:100AA800EF33FFEE33FEED33FDEC33FCD5F0ED22F2
:0E0AB800E5F0247EA2D513CC92E7CDCEFF222E
:100AC600EDD2E7CD33EC3392D524814006E4FFFE28
:100AD600FDFC22FCE4CFCECDCC24E0501174FF8087
:100AE600EDC3CC13CCCD13CDCE13CECF13CF047024
:070AF600F030D5DE020C9E7A
:100AFD00E9D2E7C933E833F892D5EDD2E7CD33EC3F
:070B0D0033FC5002B2D522B7
:100B1400EC30E7100FBF000C0EBE00080DBD000442
:100B24000BEB6014A2D5EB13FCED92E7FD2274FFEE
:100B3400FCFDFEFF22E480F8A2D574FF13FC7D8047
:030B4400E480EF5B
:0300000002126782
:0C126700787FE4F6D8FD75812A0212AEF3
:100B4700E709F608DFFA8046E709F208DFFA803E90
:100B570088828C83E709F0A3DFFA8032E309F6087D
:100B6700DFFA8078E309F208DFFA807088828C83E5
:100B7700E309F0A3DFFA806489828A83E0A3F60899
:100B8700DFFA805889828A83E0A3F208DFFA804C73
:100B970080D280FA80C680D4806980F2803380104A
:100BA70080A680EA809A80A880DA80E280CA8033B3
:100BB70089828A83ECFAE493A3C8C582C8CCC5832B
:100BC700CCF0A3C8C582C8CCC583CCDFE9DEE780FB
:100BD7000D89828A83E493A3F608DFF9ECFAA9F07A
:100BE700EDFB2289828A83ECFAE0A3C8C582C8CCD0
:100BF700C583CCF0A3C8C582C8CCC583CCDFEADEE9
:100C0700E880DB89828A83E493A3F208DFF980CC4A
:100C170088F0EF60010E4E60C388F0ED2402B40443
:100C27000050B9F582EB2402B4040050AF232345EA
:060C37008223900B97736D
:100C3D00BB010689828A83E0225002E722BBFE02B5
:090C4D00E32289828A83E49322E8
:100C5600EF8DF0A4A8F0CF8CF0A428CE8DF0A42EB2
:020C6600FE226C
:100C6800C2D5EC30E709B2D5E4C39DFDE49CFCEEA7
:100C780030E715B2D5E4C39FFFE49EFE120CACC367
:100C8800E49DFDE49CFC8003120CAC30D507C3E462
:060C98009FFFE49EFE2216
:0E0C9E00C3E49FFFE49EFEE49DFDE49CFC2267
:10127300020D01E493A3F8E493A34003F68001F283
:1012830008DFF48029E493A3F85407240CC8C3337C
:10129300C4540F4420C8834004F456800146F6DF4B
:1012A300E4800B0102040810204080901583E47E43
:1012B300019360BCA3FF543F30E509541FFEE49340
:1012C300A360010ECF54C025E060A840B8E493A307
:1012D300FAE493A3F8E493A3C8C582C8CAC583CA32
:1012E300F0A3C8C582C8CAC583CADFE9DEE780BEEA
:011587000063
:100CAC00BC000BBE0029EF8DF084FFADF022E4CC2C
:100CBC00F875F008EF2FFFEE33FEEC33FCEE9DECF5
:100CCC00984005FCEE9DFE0FD5F0E9E4CEFD22ED3B
:100CDC00F8F5F0EE8420D21CFEADF075F008EF2F85
:100CEC00FFED33FD4007985006D5F0F222C398FD76
:050CFC000FD5F0EA2213
:00000001FF
