:1009EF0053454355524954592053595354454D007B
:1009FF005072657373202A004F54502073656E64D4
:100A0F00696E67202E2E2E210041542B434D4746F1
:100A1F003D310D0A0041542B434D47533D222B3995
:100A2F003137333538393233303637220D0A0045F6
:100A3F006E74657220746865204F54502E2E2E00F0
:100A4F004F5450204D4154434845442E2E2E0044C0
:100A5F004F4F52204F50454E494E4700444F4F5233
:100A6F00204F50454E454400444F4F5220434C4F6A
:100A7F0053494E47004146544552200020534543A9
:100A8F004F4E445300444F4F5220434C4F53454415
:100A9F0000494E56414C4944204F54502021212E9D
:100AAF002E00414C455254202121210A20534F4DF5
:100ABF00454F4E452054525920544F204F50454ECC
:100ACF002054484520444F4F520041434345535310
:100ADF00204445494E45442E2E2E00506F6C6963BD
:100AEF006520697320636F6D6D696E672E2E2E0002
:100AFF002020205448414E4B20594F55002E2E2E6A
:100B0F002E57454C434F4D452E2E2E2E00003100B3
:100B1F00320033003400350036003700380039001A
:0D0B2F00300023002B002F002A002D002590
:040E9600021B03E850
:040E1C007FE87E03EA
:100E2000D3EF9400EE64809480400F7DFADDFE7D68
:0A0E3000F7DDFEEF1F70E91E80E6FB
:010E3A002295
:070E3B007E00120E207F0172
:100E42008FA0C290C291D2927F027E00120E20C267
:020E52009222EA
:100E54007F01120E427F02120E427F0C120E427F5D
:090E640038120E427F80020E429A
:100E6D008FA0D290C291D2927F027E00120E20C22C
:020E7D009222BF
:0B0DC1007F01120E427BFF7A0A797757
:100DCC008B108A118912AB10AA11A912120C38605F
:100DDC00130512E5127002051114F9120C38FF12EA
:050DEC000E6D80E22203
:0F0E7F00759850758920758BFD758DFDD28E226B
:080E8E008F993099FDC29922F1
:060DF1007BFF7A0A792461
:100DF7008B108A118912AB10AA11A912120C386034
:100E0700130512E5127002051114F9120C38FF12BE
:050E17000E8E80E222B6
:040D7A008E108F1137
:100D7E00E4FBE51145106023AE10AF117C007D0A37
:100D8E00120C6374122BF8A6050BAE10AF117C007B
:100D9E007D0A120C638E108F1180D71BC3EB6480FB
:100DAE009480400E74122BF8E62430FF120E8E1B28
:020DBE0080EAC9
:010DC0002210
:100B3C00C287C286C285C284D283D282D281D2803D
:100B4C00E51CB40F0BE51BB42706751B03751CE8DD
:100B5C00051CE51C7002051BA281828082828283A7
:100B6C0040DEC284D287D286D285A28182808282E4
:100B7C0082834007E4F510F511804CC285D287D2F0
:100B8C0086D284A281828082828283400875100082
:100B9C007511018032C286D287D285D284A281821D
:100BAC00808282828340087510007511028018C201
:100BBC0087D286D285D284A281828082828283402F
:100BCC0006751000751103208005E4FAFB801920CE
:100BDC0081067A007B0180102082067A007B0280DD
:100BEC00072083047A007B037F2C7E01120E20A247
:100BFC008182808282828350F67F2C7E01120E20AD
:100C0C00EB25E0FDEA33FCE511AE107803C333CEDF
:100C1C0033CED8F9241CF582740B3EF583E5822D76
:0B0C2C00F582E5833CF583740193FF23
:010C3700229A
:10080000E4F50AF50BF50EF50F120E54120E7F7B70
:10081000FF7A0979EF120DCC7FA07E0F120E3D7B7F
:10082000FF7A0979FF120DCC120B3CBF2AFA7F0127
:10083000120E427BFF7A0A7907120DCC120E1C852C
:100840001B08851C097BFF7A0A7918120DF77F6453
:100850007E00120E20120DF17F647E00120E20AF7A
:1008600009AE08120D7A7F1A120E8E7F01120E4207
:100870007BFF7A0A793E120DCC7FC0120E42E4F55E
:100880000CF50D120B3CAB077F2A120E6DAE0AAFB2
:100890000B7C007D0A120C51EBFD3395E0FCED243E
:1008A000D0FDEC34FFCD2FF50BED3EF50A050DE53F
:1008B0000D7002050CC39404E50C940040C57F3212
:1008C000120E3BE509650B7004E508650A6003023A
:1008D00009747BFF7A0A794F120DCC7FE87E0312F0
:1008E0000E3D7BFF7A0A795E120DCC120E1CC2936C
:1008F000D2947F887E13120E20D293D2947BFF7AFB
:100900000A796B120DCC7F647E00120E20750C00EC
:10091000750D05120DC17FC0120E427BFF7A0A7958
:1009200084120DCCE50D2430FF120E6D7BFF7A0A88
:10093000798B120DCC7FEE7E02120E20E50D150D87
:100940007002150CD3E50D9400E50C940050C4D250
:1009500093C294120DC17FA07E0F120E20D293D2AB
:10096000947F01120E427BFF7A0A7994120DCC1209
:100970000E1C805D7F01120E427BFF7A0A79A01265
:100980000DCC120E1C050FE50F7002050E64034519
:100990000E7036120DF17F647E00120E207BFF7AFE
:1009A0000A79B1120DF77F1A120E8E7F64120E3B78
:1009B0007BFF7A0A79D9120DCC7FC0120E427BFFE1
:1009C0007A0A79EA120DCC80FEE4F50AF50B0208EA
:1009D0006B7F01120E427BFF7A0A79FF120DCC7FEA
:0F09E000C0120E427BFF7A0B790C120DCC80FEF9
:03000000020CEE01
:0C0CEE00787FE4F6D8FD75811C020D35FE
:100C3800BB010689828A83E0225002E722BBFE02BA
:090C4800E32289828A83E49322ED
:100C5100EF8DF0A4A8F0CF8CF0A428CE8DF0A42EB7
:020C6100FE2271
:100C6300C2D5EC30E709B2D5E4C39DFDE49CFCEEAC
:100C730030E715B2D5E4C39FFFE49EFE120C99C37F
:100C8300E49DFDE49CFC8003120C9930D507C3E47A
:060C93009FFFE49EFE221B
:100CFA00020800E493A3F8E493A34003F68001F208
:100D0A0008DFF48029E493A3F85407240CC8C333FA
:100D1A00C4540F4420C8834004F456800146F6DFC9
:100D2A00E4800B0102040810204080900E96E47EB5
:100D3A00019360BCA3FF543F30E509541FFEE493BE
:100D4A00A360010ECF54C025E060A840B8E493A385
:100D5A00FAE493A3F8E493A3C8C582C8CAC583CAB0
:100D6A00F0A3C8C582C8CAC583CADFE9DEE780BE68
:010E9A000057
:100C9900BC000BBE0029EF8DF084FFADF022E4CC3F
:100CA900F875F008EF2FFFEE33FEEC33FCEE9DEC08
:100CB900984005FCEE9DFE0FD5F0E9E4CEFD22ED4E
:100CC900F8F5F0EE8420D21CFEADF075F008EF2F98
:100CD900FFED33FD4007985006D5F0F222C398FD89
:050CE9000FD5F0EA2226
:00000001FF
